:020000040800F2
:100000000050002069180008E1170008E3170008F5
:10001000E5170008E7170008E917000800000000CE
:10002000000000000000000000000000EB170008C6
:10003000ED17000800000000EF170008F117000896
:10004000B1180008B1180008B1180008B11800086C
:10005000B1180008B1180008B1180008B11800085C
:10006000B1180008B1180008B1180008B11800084C
:10007000B1180008FD170008B1180008B1180008F1
:10008000B1180008B1180008B1180008B11800082C
:10009000B1180008B1180008B1180008B11800081C
:1000A000B1180008B1180008B1180008B11800080C
:1000B000B1180008B1180008B1180008B1180008FC
:1000C000B1180008B1180008B11800080D18000890
:1000D000B1180008B1180008B1180008B1180008DC
:1000E000B1180008B1180008B1180008000000009D
:1000F0000000000000000000000000000000000000
:0C01000000000000000000005FF808F1A3
:10010C0010B5054C237833B9044B13B10448AFF345
:10011C0000800123237010BD70000020000000003F
:10012C007C1A00080C4B43B10C4810B50C49AFF3CA
:10013C0000800C48036823B910BD0A48036833B922
:10014C007047094B002BF7D0BDE810401847064B01
:10015C00002BF5D0184700BF000000007C1A0008E7
:10016C0074000020700000200000000010B5044650
:10017C000E4B18784FF47A73B3FBF0F30C4A1068FB
:10018C00B0FBF3F000F09EF868B90F2C01D90120F8
:10019C0010BD002221464FF0FF3000F055F8034B04
:1001AC005C60002010BD012010BD00BF00000020CD
:1001BC000800002008B5074A136843F010031360C9
:1001CC00032000F02FF80020FFF7D0FF01F070FAA9
:1001DC00002008BD00200240034A1168034B1B7825
:1001EC000B441360704700BF9C00002000000020EF
:1001FC00014B1868704700BF9C00002038B50446BE
:10020C00FFF7F6FF0546B4F1FF3F02D0044B1B7815
:10021C001C44FFF7EDFF401B8442FAD838BD00BFE9
:10022C0000000020074AD36823F4E0631B041B0C76
:10023C00000200F4E060184340F0BF6040F400306E
:10024C00D060704700ED00E030B4164BDB68C3F3B0
:10025C000223C3F10704042C28BF04241D1D062D02
:10026C0017D9033B012505FA04F4013C21409940C0
:10027C0005FA03F3013B1340194300280BDB09017A
:10028C00C9B200F1604000F5614080F8001330BC49
:10029C0070470023E6E700F00F000901C9B2024BDA
:1002AC001954F4E700ED00E014ED00E0420900F011
:1002BC001F00012303FA00F0014B43F822007047A2
:1002CC0000E100E00138B0F1807F0AD2064B5860A3
:1002DC00F021064A82F823100020986007221A6049
:1002EC0070470120704700BF10E000E000ED00E017
:1002FC00042805D0054A136823F0040313607047E3
:10030C00024A136843F004031360704710E000E0E6
:10031C00704708B5FFF7FCFF08BD70B4C56B066CE1
:10032C000124B4406C60046863604368102B05D0F2
:10033C00036899600368DA6070BC704703689A6060
:10034C000368D960F8E70000002830D010B40346E9
:10035C000068184A02441849A1FB021212099200C3
:10036C001A64164ADA63022283F82120016821F408
:10037C007F5121F030015A689C682243DC6822438B
:10038C001C6922435C6922439C692243DC69224339
:10039C000A43026000209862D8621863586398631D
:1003AC00012283F8212083F8200010BC7047012023
:1003BC00704700BFF8FFFDBFCDCCCCCC0000024095
:1003CC0038B590F82040012C32D0012480F8204020
:1003DC0090F82140012C04D0002380F8203002201A
:1003EC0038BD0446022084F821000020A063256853
:1003FC00286820F0010028602046FFF78EFFE36A92
:10040C005BB12268136843F00E0313602268136813
:10041C0043F001031360002038BD2268136823F0F9
:10042C00040313602268136843F00A031360EDE7BA
:10043C00022038BD08B590F82130022B03D00423DC
:10044C008363012008BD0268136823F00E03136058
:10045C000268136823F0010313600368194A93427E
:10046C0014D0143293421FD0143293421ED0143243
:10047C0093421ED0143293421ED01432934202D0B7
:10048C004FF0807203E04FF4801200E001220E4B1B
:10049C005A60012380F82130002380F82030436B10
:1004AC006BB19847002008BD1022F0E74FF4807222
:1004BC00EDE74FF48052EAE74FF48032E7E7002093
:1004CC0008BD00BF080002400000024038B5C36BF5
:1004DC001A6804682568016C04238B401A4236D0D4
:1004EC0015F0040F33D0236813F0200F03D12368C9
:1004FC0023F0040323600368434A934214D014325C
:10050C00934219D01432934218D01432934218D01B
:10051C001432934218D01432934202D04FF08062BE
:10052C0003E04FF4800200E00422384B5A60C36AA7
:10053C00002B67D0984738BD4022F6E74FF4806215
:10054C00F3E74FF48042F0E74FF48022EDE702230B
:10055C008B401A423BD015F0020F38D0236813F0B1
:10056C00200F06D1236823F00A032360012380F8AF
:10057C0021300368244A934214D0143293421BD086
:10058C00143293421AD0143293421AD0143293423A
:10059C001AD01432934202D04FF0007203E04FF4A1
:1005AC00001200E00222194B5A60002380F8203020
:1005BC00836A3BB3984738BD2022F4E74FF40072AE
:1005CC00F1E74FF40052EEE74FF40032EBE708236B
:1005DC0003FA01F10A4215D015F0080F12D0236866
:1005EC0023F00E032360C16B026C012303FA02F2A9
:1005FC004A60836380F82130002380F82030036B3D
:10060C0003B1984738BD00BF08000240000002400B
:10061C00F0B583B00026344671E0002D00F0A180C7
:10062C00012D00D1CE68FF2B00F2AF808646FF2B48
:10063C0000F2AE80A500DEF800200F27AF4022EAC2
:10064C00070206FA05F52A43CEF800204A6812F094
:10065C00805F53D0634A956945F0010595619269B5
:10066C0002F001020192019AA508AF1C5E4A52F8F1
:10067C00272004F00307BF004FF00F0E0EFA07FE01
:10068C0022EA0E02DFF870E1704500F088800EF56A
:10069C00806E704500F086800EF5806E704500F01F
:1006AC0084800EF5806E704576D04FF0040E0EFAF5
:1006BC0007F73A4302354C4F47F825204A6812F4A5
:1006CC00803F75D0494D2A681A432A604A6812F453
:1006DC00003F73D0454D6A681A436A604A6812F449
:1006EC00801F71D0414DAA681A43AA604A6812F45F
:1006FC00001F6FD03D4DEA681343EB6001340F2CA3
:10070C006ED80122A2400B6813409A42F6D14D6874
:10071C00122D30D00BD8022D2AD07FF67EAF032DB0
:10072C002FD0112D7FF47FAFCE6804367BE7304F8E
:10073C00BD4216D00CD92F4FBD4212D007F58037D1
:10074C00BD420ED0A7F58017BD427FF46CAF08E018
:10075C00A7F58017BD4204D007F58037BD427FF462
:10076C0062AF8D687DB1012D08D0426108265AE731
:10077C00CE68083657E7CE680C3654E70261082677
:10078C0051E700264FE704264DE700F1040E4EE733
:10079C00A4F10805AD004EE74FF0030E87E74FF0CC
:1007AC00000E84E74FF0010E81E74FF0020E7EE75A
:1007BC000E4D2A6822EA03022A6087E70B4D6A680D
:1007CC0022EA03026A6089E7084DAA6822EA03025A
:1007DC00AA608BE7054DEA6822EA0303EB608DE71C
:1007EC0003B0F0BD001002400000014000040140C5
:1007FC0000002110000031100008014012B909045A
:10080C00016170470161704782B0084B1B68084A50
:10081C00A2FB03235B0A00FB03F0019000BF019BCA
:10082C005A1E0192002BF9D102B07047080000202B
:10083C00D34D621070B582B00446036813F0010FFB
:10084C003DD0AC4B5B6803F00C03042B2ED0A94BB2
:10085C005B6803F00C03082B23D06368B3F5803F6F
:10086C0051D0002B55D103F1804303F504331A68A2
:10087C0022F480321A601A6822F480221A606368AB
:10088C00002B60D0FFF7B4FC05469A4B1B6813F4A1
:10089C00003F14D1FFF7ACFC401B6428F5D90320B2
:1008AC00AFE1944B5B6813F4803FD6D0914B1B683F
:1008BC0013F4003F03D06368002B00F09F81236882
:1008CC0013F0020F65D08B4B5B6813F00C0F4ED0FE
:1008DC00884B5B6803F00C03082B43D02369002B77
:1008EC0079D00122844B1A60FFF782FC0546814BBC
:1008FC001B6813F0020F65D1FFF77AFC401B02282E
:10090C00F5D903207DE17B4A136843F480331360EF
:10091C00B5E7B3F5A02F09D0764B1A6822F48032D4
:10092C001A601A6822F480221A60A8E703F1804347
:10093C00A3F53C331A6842F480221A601A6842F418
:10094C0080321A609BE7FFF753FC0546694B1B6826
:10095C0013F4003FB3D0FFF74BFC401B6428F5D9D0
:10096C0003204EE1634B5B6813F4803FB6D1614BBF
:10097C001B6813F0020F04D02369012B01D0012056
:10098C003FE15C4A136823F0F803616943EAC10351
:10099C001360236813F0080F32D0A369002B6ED0BC
:1009AC000122564B1A60FFF723FC0546514B5B6A3C
:1009BC0013F0020F21D1FFF71BFC401B0228F5D9C5
:1009CC0003201EE14B4A136823F0F803616943EAE4
:1009DC00C1031360DDE70022474B1A60FFF708FCE8
:1009EC000546444B1B6813F0020FD2D0FFF700FCF6
:1009FC00401B0228F5D9032003E10120FFF704FF77
:100A0C00236813F0040F00F099803A4BDB6913F064
:100A1C00805F46D1374BDA6942F08052DA61DB698C
:100A2C0003F080530193019B0125354B1B6813F494
:100A3C00807F38D0E368012B49D0002B4DD103F1D6
:100A4C00804303F504331A6A22F001021A621A6A0F
:100A5C0022F004021A62E368002B5DD0FFF7C8FB9A
:100A6C000646244B1B6A13F0020F66D1FFF7C0FB3E
:100A7C00801B41F288339842F3D90320C1E0002255
:100A8C001E4B1A60FFF7B4FB05461A4B5B6A13F05A
:100A9C00020FB5D0FFF7ACFB401B0228F5D90320A1
:100AAC00AFE00025C1E7164A136843F48073136066
:100ABC00FFF79EFB0646124B1B6813F4807FB9D1DF
:100ACC00FFF796FB801B6428F5D9032099E0094AAF
:100ADC00136A43F001031362BDE7052B12D0054BDB
:100AEC001A6A22F001021A621A6A22F004021A62CD
:100AFC00B1E700BF001002400000424280044242B5
:100B0C0000700040414B1A6A42F004021A621A6AE1
:100B1C0042F001021A629EE7FFF76AFB06463B4B66
:100B2C001B6A13F0020F08D0FFF762FB801B41F227
:100B3C0088339842F3D9032063E0E5B9E369002BCD
:100B4C005ED0324A526802F00C02082A5BD0022BAB
:100B5C0017D000222E4B1A60FFF74AFB04462B4B92
:100B6C001B6813F0007F47D0FFF742FB001B0228E5
:100B7C00F5D9032045E0254AD36923F08053D3618E
:100B8C00DCE70022224B1A60FFF732FB05461F4BB5
:100B9C001B6813F0007F06D0FFF72AFB401B0228CE
:100BAC00F5D903202DE0236AB3F5803F1AD01749FD
:100BBC004B6823F47413226A606A024313434B603C
:100BCC000122134B1A60FFF713FB04460F4B1B68F3
:100BDC0013F0007F0ED1FFF70BFB001B0228F5D999
:100BEC0003200EE0094A536823F40033A1680B4339
:100BFC005360DCE7002004E0002002E0012000E06C
:100C0C00002002B070BD0120FBE700BF00100240C5
:100C1C006000424210B586B0154C94E80F000DF1FF
:100C2C00180E0EE90F00238AADF80430114B5B68E7
:100C3C0003F00C02082A18D1C3F38342724412F851
:100C4C00102C13F4803F03D10B4800FB02F00DE095
:100C5C00084B5B68C3F34043734413F8143C0748D8
:100C6C0000FB02F0B0FBF3F000E0044806B010BD4E
:100C7C00941A00080010024000093D0000127A008E
:100C8C00594B1B6803F007038B420CD2564A13686E
:100C9C0023F007030B431360136803F00703994217
:100CAC0001D00120704770B5036813F0020F06D015
:100CBC004E4A536823F0F0038468234353600D4677
:100CCC000446036813F0010F52D04368012B23D064
:100CDC00022B28D0454A126812F0020F00F08280D5
:100CEC0042494A6822F0030213434B60FFF780FA33
:100CFC0006466368012B1DD0022B2AD03B4B5B6848
:100D0C0013F00C0F34D0FFF773FA801B41F28833C9
:100D1C009842F3D9032070BD344A126812F4003F94
:100D2C00DED1012070BD314A126812F0007FD7D19C
:100D3C00012070BD2D4B5B6803F00C03042B17D006
:100D4C00FFF756FA801B41F288339842F2D9032000
:100D5C0070BD264B5B6803F00C03082B08D0FFF723
:100D6C0047FA801B41F288339842F2D9032070BDB8
:100D7C001D4B1B6803F007039D420CD21A4A1368E3
:100D8C0023F007032B431360136803F007039D4202
:100D9C0001D0012070BD236813F0040F06D0134A54
:100DAC00536823F4E063E1680B435360236813F04A
:100DBC00080F07D00D4A536823F46053216943EAA6
:100DCC00C1035360FFF726FF084B5B68C3F30313A3
:100DDC00074AD35CD840074B18600020FFF7C6F9D0
:100DEC00002070BD012070BD0020024000100240A8
:100DFC00A81D000808000020014B1868704700BFB0
:100E0C0008000020F8B505460F4616461C463BE088
:100E1C002CB1FFF7EDF9069BC01A844234D82A682E
:100E2C00536823F0E00353606B68B3F5827F0BD0FB
:100E3C00AB6AB3F5005F14D0012385F85130002361
:100E4C0085F850300320F8BDAB68B3F5004F02D0E5
:100E5C00B3F5806FECD12A68136823F0400313605C
:100E6C00E6E72A68136823F400531B041B0C136079
:100E7C002A68136843F400531360DDE70123B3427F
:100E8C0009D0B4F1FF3FC3D12B689B6837EA030349
:100E9C00F4D00023F3E70020F8BD10B582B004466F
:100EAC0000920B4600228021FFF7ACFF034620B1D5
:100EBC00636D43F0200363650323184602B010BD35
:100ECC0090F85030012B56D010B50446012380F811
:100EDC00503090F85130DBB2012B04D002200023AB
:100EEC0084F8503010BD002941D0002A41D0032392
:100EFC0080F851300023436501638286C286836388
:100F0C00436403648387C3878368B3F5004F28D099
:100F1C00A36C1A4ADA62A36C194A9A62A36C194A36
:100F2C001A63A36C00225A632268E38E9BB20C32C4
:100F3C00216BA06CFFF744FA23681A6812F0400F7B
:100F4C0003D11A6842F040021A602268536843F0D9
:100F5C00200353602268536843F00203536000205F
:100F6C00BDE70268136843F480431360D0E70120A7
:100F7C00B5E70120B3E70220704700BF990F0008C6
:100F8C00C70F0008A50F00087047704708B5406AE6
:100F9C00FFF7FBFF08BD704708B5406A026853684D
:100FAC0023F003035360436D43F0100343650123A7
:100FBC0080F85130FFF7EFFF08BD30B583B0054620
:100FCC00446AFFF715F92B681B6813F0200F1ED12C
:100FDC002268536823F002035360024664212046C2
:100FEC00FFF75BFF18B1636D43F020036365A368E3
:100FFC0033B901932368DA6801929B680193019BD2
:10100C000023E386012384F85130636D23B9204615
:10101C00FFF7BAFF03B030BD2046FFF7BCFFF9E77E
:10102C0010B584B0044602685168936803F041001F
:10103C0001284FD013F0020F02D011F0800F50D1C5
:10104C0013F0600F50D011F0200F4DD013F0400F63
:10105C000FD094F85100C0B2032847D0606D40F017
:10106C000400606500200190D068019090680190A8
:10107C00019813F0200F0CD0636D43F001036365EE
:10108C000023039393680393136823F040031360C6
:10109C00039B636D43B32268536823F0E0035360F2
:1010AC00012384F8513011F0030F27D022685368C4
:1010BC0023F003035360E36C23B1124A5A63E06CD0
:1010CC00FFF7B8F9A36C7BB10E4A5A63A06CFFF71B
:1010DC00B1F909E011F0400FACD0236C20469847D1
:1010EC0002E0636C2046984704B010BD00230293C5
:1010FC00D368029393680293029BF5E72046FFF7AF
:10110C004AFFF1E71511000808B5406A0023C387B0
:10111C00C386FFF740FF08BD00283CD010B504463D
:10112C000023836290F85130002B31D0022384F8D5
:10113C0051302268136823F04003136022686368FF
:10114C00A1680B43E1680B4321690B4361690B43B5
:10115C00A16901F400710B43E1690B43216A0B4354
:10116C00A16A0B4313602268638B03F00403616A6A
:10117C000B4353602368E26A1A612268D36923F433
:10118C000063D36100206065012384F8513010BDE9
:10119C0000F0DEFACAE701207047000030B589B0D4
:1011AC001B4B9A6942F010029A619A6902F0100284
:1011BC000192019A9A6942F020029A619A6902F0AE
:1011CC0020020292029A9A6942F004029A619B6987
:1011DC0003F004030393039B0E4D002201212846C8
:1011EC00FFF70CFB4FF40053049300240594069472
:1011FC0004A90948FFF70CFA0123049305930694FC
:10120C000223079304A92846FFF702FA09B030BD60
:10121C0000100240000801400010014000B583B0EE
:10122C000A4B5A6942F001025A615B6903F00103EF
:10123C000193019B002211460D20FFF705F80D20AC
:10124C00FFF734F803B05DF804FB00BF0010024058
:10125C00F0B400EB40008BB25D1C2DB2461C064C6A
:10126C00275C064A575402331BB20230A15D51551C
:10127C00215CD154F0BC7047A81A0008A0000020D3
:10128C0070B506460846154603EBC30421B2FFF7BA
:10129C00DFFFA4B2E11C09B23046FFF7D9FFA11D54
:1012AC0009B22846FFF7D4FF70BD000008B54FF413
:1012BC00227205490548FFF703FE044B1B689B6827
:1012CC0013F0800FF9D108BDA000002028030020E6
:1012DC00F8B507460E461546002406E023B22A460A
:1012EC0031463846FFF7CCFF0134472CF6DDFFF7CB
:1012FC00DDFFF8BD10B50C4611461A4603B2204668
:10130C00FFF7BEFFFFF7D2FF10BD000010B5322172
:10131C00002000F0EDFA064C20703221002000F085
:10132C00E7FA60703221002000F0E2FAA07010BDE4
:10133C008C00002010B5002211461046FFF7C8FFA4
:10134C003220FEF75BFF00240BE017498B784A78BC
:10135C000978A0B2FFF7CEFF0A20FEF74FFF013449
:10136C0064B2472CF1DD00240BE00F498B784A78EE
:10137C000978A0B2FFF7BEFF0A20FEF73FFF013449
:10138C0064B2472CF1DD00240BE007498B784A78D6
:10139C000978A0B2FFF7AEFF0A20FEF72FFF013449
:1013AC0064B2472CF1DD10BD8C00002038B5054629
:1013BC00002407E03223002211462046FFF79AFF53
:1013CC000134A4B2472C09D814F0010FF2D1002338
:1013DC001A4632212046FFF78DFFF1E72846FEF72B
:1013EC000DFF002407E000231A4632212046FFF7A8
:1013FC0081FF0134A4B2472C09D814F0010FF2D1AB
:10140C003223002211462046FFF774FFF1E72846ED
:10141C00FEF7F4FE38BD2DE9F04105468846174627
:10142C001E46002211461046FFF752FF002414E01E
:10143C0004F1240033463A46414680B2FFF75AFF86
:10144C00C4F1240033463A46414680B2FFF752FFBE
:10145C002846FEF7D3FE0134A4B2232CE8D900248D
:10146C0014E004F1240000231A46194680B2FFF759
:10147C0041FFC4F1240000231A46194680B2FFF73D
:10148C0039FF2846FEF7BAFE0134A4B2232CE8D962
:10149C00BDE8F0812DE9F84305460F469046994684
:1014AC00002414E0A6B2701E00231A46194680B21E
:1014BC00FFF720FF2846FEF7A1FE4B464246394671
:1014CC003046FFF717FF2846FEF798FE0134472CED
:1014DC00E8DD482615E0B4B2601E00231A46194612
:1014EC0080B2FFF707FF2846FEF788FEA01E4B468A
:1014FC004246394680B2FFF7FDFE2846FEF77EFED7
:10150C00013E012EE7DC00231A4619464720FFF75F
:10151C00F1FEBDE8F883FEE708B50F480F4B0360FA
:10152C004FF48273436000238360C36003614361A3
:10153C004FF4007282611822C261036243628362BB
:10154C000A23C362FFF7E8FD00B908BD4FF40D7123
:10155C000348FFF7E0FF00BF2803002000300140E4
:10156C00C01D000800B591B0012206924FF48033E3
:10157C000793002108910A9202220D920E934FF4C8
:10158C0040230F9306A8FFF755F910BB0F230193C7
:10159C0002230293002303934FF480620492059379
:1015AC00012101A8FFF76CFBC0B9FFF725FC0E4B1E
:1015BC00A3FB00308009FEF785FE0420FEF798FEA1
:1015CC00002211464FF0FF30FEF73EFE11B05DF8E1
:1015DC0004FB4FF401710548FFF79DFF40F2122107
:1015EC000248FFF798FF00BFD34D6210C01D0008E2
:1015FC0008B5FEF7DFFDFFF7B5FFFFF7CFFDFFF7EF
:10160C000DFEFFF789FF6420FFF7D0FE0A20FEF7DE
:10161C00F5FD6420FFF7CAFE0A20FEF7EFFD6420FB
:10162C00FFF7C4FE0A20FEF7E9FD6420FFF7BEFEBB
:10163C000A20FEF7E3FD6420FFF7B8FE0A20FEF750
:10164C00DDFD6420FFF7B2FE0A20FEF7D7FD642013
:10165C00FFF7ACFE0A20FEF7D1FDFFF757FE134C47
:10166C00A378627821780A20FFF714FF0A20FEF78E
:10167C00C5FDFFF74BFEA378627821780A20FFF7AF
:10168C0009FF0A20FEF7BAFDFFF754FE0A20FEF709
:10169C00B5FDFFF73BFEA378627821783220FFF787
:1016AC00BAFE0A20FEF7AAFDADE700BF8C000020B1
:1016BC0000B583B0244B9A6942F001029A619A6991
:1016CC0002F001020092009ADA6942F08052DA616B
:1016DC00DB6903F080530193019B0320FEF7A2FD0D
:1016EC00002211466FF00B00FEF7AEFD00221146F2
:1016FC006FF00A00FEF7A8FD002211466FF00900FA
:10170C00FEF7A2FD002211466FF00400FEF79CFDCF
:10171C00002211466FF00300FEF796FD00221146E1
:10172C006FF00100FEF790FD002211464FF0FF30E4
:10173C00FEF78AFD054A536823F0E06343F000731B
:10174C00536003B05DF804FB001002400000014040
:10175C0002681B4B9A4200D0704710B586B0044605
:10176C0003F560439A6942F480529A619B6903F4D1
:10177C0080530193019BA023029302230393032321
:10178C00059302A90F48FEF743FF0F480F4B036068
:10179C0010234360002383608022C2600361436195
:1017AC008361C361FEF7D0FD20B9074BA3645C6273
:1017BC0006B010BD78210648FFF7ADFEF5E700BF77
:1017CC00003001400008014080030020300002403E
:1017DC00D01D00087047FEE7FEE7FEE7FEE7704706
:1017EC007047704708B5FEF7F7FCFEF792FD08BD91
:1017FC0008B50248FEF76AFE08BD00BF8003002052
:10180C0008B50248FFF70CFC08BD00BF28030020F8
:10181C000F4B1A6842F001021A6059680D4A0A40CF
:10182C005A601A6822F0847222F480321A601A68A4
:10183C0022F480221A605A6822F4FE025A604FF495
:10184C001F029A604FF00062034B9A60704700BF12
:10185C00001002400000FFF800ED00E0002103E062
:10186C000B4B5B58435004310A480B4B42189A42BD
:10187C00F6D30A4A02E0002342F8043B084B9A4292
:10188C00F9D3FFF7C5FF00F00FF8FFF7B1FE704773
:10189C00F41D0008000000207000002070000020E3
:1018AC00C8030020FEE7000070B500250C4E0D4C5F
:1018BC00A41BA410A54209D100F0DAF800250A4EA9
:1018CC000A4CA41BA410A54205D170BD56F82530B6
:1018DC0098470135EEE756F8253098470135F2E781
:1018EC00EC1D0008EC1D0008EC1D0008F01D0008A4
:1018FC00194B10B51C68A36BD3B9182000F032F843
:10190C0043F20E33A06303804AF6CD33438041F299
:10191C00342383804EF26D63C3804DF6EC630381F8
:10192C00052343810B23012283810023C0E9042377
:10193C00A16B0A480A694B695043094C04FB03002C
:10194C00A2FB04230132034443F10003C1E9042345
:10195C0023F0004010BD00BF0C0000202DF45158A6
:10196C002D7F954C024B0146186800F003B800BF60
:10197C000C00002070B5CD1C25F0030508350C2D8E
:10198C0038BF0C25002D064601DBA94203D90C23D8
:10199C003360002070BD00F05BF8234A14682146C8
:1019AC0091B9224C23681BB9304600F041F82060F5
:1019BC002946304600F03CF8431C26D10C23304617
:1019CC00336000F046F8E4E70B685B1B1AD40B2B72
:1019DC000FD90B60CC18CD50304600F03AF804F11A
:1019EC000B00231D20F00700C31A1BD05A42E250F3
:1019FC0070BD8C420BBF63684B681360636018BF8B
:101A0C000C46E9E70C464968CAE7C41C24F00304F9
:101A1C00A04205D0211A304600F00AF80130CDD092
:101A2C002560D9E770BD00BF900000209400002015
:101A3C0038B50023054C05460846236000F00AF82B
:101A4C00431C02D1236803B12B6038BDC4030020B2
:101A5C0070477047044A05491368002B08BF0B46B2
:101A6C00184410601846704798000020C8030020E6
:101A7C00F8B500BFF8BC08BC9E467047F8B500BF6F
:081A8C00F8BC08BC9E4670473F
:101A940002030405060708090A0B0C0D0E0F1010AB
:101AA400010200009249249249269249349249360F
:101AB4009249A49249A69249B49249B6924D24926D
:101AC4004D26924D34924D36924DA4924DA6924D90
:101AD400B4924DB692692492692692693492693619
:101AE4009269A49269A69269B49269B6926D24929D
:101AF4006D26926D34926D36926DA4926DA6926DA0
:101B0400B4926DB693492493492693493493493644
:101B14009349A49349A69349B49349B6934D249306
:101B24004D26934D34934D36934DA4934DA6934D2A
:101B3400B4934DB6936924936926936934936936B3
:101B44009369A49369A69369B49369B6936D249336
:101B54006D26936D34936D36936DA4936DA6936D3A
:101B6400B4936DB69A49249A49269A49349A4936C7
:101B74009A49A49A49A69A49B49A49B69A4D249A7C
:101B84004D269A4D349A4D369A4DA49A4DA69A4DA7
:101B9400B49A4DB69A69249A69269A69349A693630
:101BA4009A69A49A69A69A69B49A69B69A6D249AAC
:101BB4006D269A6D349A6D369A6DA49A6DA69A6DB7
:101BC400B49A6DB69B49249B49269B49349B49365C
:101BD4009B49A49B49A69B49B49B49B69B4D249B16
:101BE4004D269B4D349B4D369B4DA49B4DA69B4D42
:101BF400B49B4DB69B69249B69269B69349B6936CB
:101C04009B69A49B69A69B69B49B69B69B6D249B45
:101C14006D269B6D349B6D369B6DA49B6DA69B6D51
:101C2400B49B6DB6D24924D24926D24934D249361E
:101C3400D249A4D249A6D249B4D249B6D24D24D26B
:101C44004D26D24D34D24D36D24DA4D24DA6D24DCE
:101C5400B4D24DB6D26924D26926D26934D2693657
:101C6400D269A4D269A6D269B4D269B6D26D24D29B
:101C74006D26D26D34D26D36D26DA4D26DA6D26DDE
:101C8400B4D26DB6D34924D34926D34934D3493683
:101C9400D349A4D349A6D349B4D349B6D34D24D305
:101CA4004D26D34D34D34D36D34DA4D34DA6D34D69
:101CB400B4D34DB6D36924D36926D36934D36936F2
:101CC400D369A4D369A6D369B4D369B6D36D24D335
:101CD4006D26D36D34D36D36D36DA4D36DA6D36D79
:101CE400B4D36DB6DA4924DA4926DA4934DA493606
:101CF400DA49A4DA49A6DA49B4DA49B6DA4D24DA7B
:101D04004D26DA4D34DA4D36DA4DA4DA4DA6DA4DE5
:101D1400B4DA4DB6DA6924DA6926DA6934DA69366E
:101D2400DA69A4DA69A6DA69B4DA69B6DA6D24DAAA
:101D34006D26DA6D34DA6D36DA6DA4DA6DA6DA6DF5
:101D4400B4DA6DB6DB4924DB4926DB4934DB49369A
:101D5400DB49A4DB49A6DB49B4DB49B6DB4D24DB14
:101D64004D26DB4D34DB4D36DB4DA4DB4DA6DB4D80
:101D7400B4DB4DB6DB6924DB6926DB6934DB693609
:101D8400DB69A4DB69A6DB69B4DB69B6DB6D24DB44
:101D94006D26DB6D34DB6D36DB6DA4DB6DA6DB6D90
:101DA400B4DB6DB600000000000000000102030473
:101DB4000607080900000000010203042E2E2F5319
:101DC40072632F6D61696E2E630000002E2E2F53F7
:101DD40072632F73746D3332663178785F68616C27
:081DE4005F6D73702E630000B7
:041DEC0031010008B9
:041DF0000D010008D9
:101DF400010000001000000000A24A0410000020AE
:101E040000000000000000000000000000000000CE
:101E140000000000000000000000000000000000BE
:101E240000000000000000000000000000000000AE
:101E3400000000000000000000000000000000009E
:101E4400000000000000000000000000000000008E
:101E5400000000000000000000000000000000007E
:04000005080018696E
:00000001FF
